:1000000008308A0000280000FF00030E8301A100D1
:100010000A08A0008A010408A2007708A300780853
:10002000A4007908A5007A08A600831383128C30F7
:100030008400001F1D280C1B38288C308400801C75
:1000400023288C183B288B1E27280B193E282208B2
:1000500084002308F7002408F8002508F900260882
:10006000FA0020088A00210E8300FF0E7F0E09008F
:100070008A110A1263288A110A126B288A110A123D
:1000800050280A108A100A1182073F3406345B3464
:100090004F3466346D347D3407347F346F347934B3
:1000A0000B110130CF00CD08031D5928CE080319CC
:1000B0005E284D080319CE03CD035F2810100B11E5
:1000C0008A110A1227280C1383160C1383120C139F
:1000D0008A110A1227288C108C108A110A122728DC
:1000E00083160512860188130813881208128811D6
:1000F0000811881007140711831207158B16831631
:100100008112811101158110011083128B170B17B9
:100110008A150A12782892101214FF308316920062
:1001200083129711171112110800BB30840083133A
:1001300000080319AC280630F800BF30F70064004F
:10014000F70B9F28F80B9D287A30F700F70BA628AD
:10015000A9286400800B9B288A150A128428901411
:10016000901210129011101183160C1083120C10A3
:100170008A150A128E2883160C139F1705141F1751
:1001800083129F171F1383169F151F159F141F108F
:1001900083121F149F121F129F118A150A12912891
:1001A000F701F80183163F0803104018F707F70C12
:1001B000F80CC018F707F70CF80C4019F707F70C04
:1001C000F80CC019F707F70CF80C401AF707F70CF2
:1001D000F80CC01AF707F70CF80C401BF707F70CE0
:1001E000F80CC01BF707F70CF80C8312080039084D
:1001F0008316BC00831239088316BD00BB013A0880
:100200003B0203184A29BC0A3A083C020318BC0105
:10021000831239088316BF000330C0008312D02038
:1002200001307807273E8400831300088316BE0040
:100230003C08BF000330C0008312D0200130780793
:10024000273E84008313000883163E0203184829C2
:100250003D08BF000330C0008312D0200130780772
:10026000273E8400831300088316BE003C08BF00AD
:100270000330C0008312D02001307807273E84006D
:100280008313000883163E02031848293C08BD006A
:10029000BB0AFF288312390883163D020319572928
:1002A0003D088312B900F8008C298A298316BB0106
:1002B0003A083B0203188929BC0A3A083C02031891
:1002C000BC01831239088316BF000330C0008312BB
:1002D000D02001307807273E84008313000883165E
:1002E000BE003C08BF000330C0008312D0200130A4
:1002F0007807273E84008313000883163E02031DFF
:1003000087293C088312B900F8008C298316BB0AA0
:10031000582983123908F8000800080010308506B3
:100320000130BF00F430BE00BC0197298E290800BF
:10033000F801F901F701FA0183163F08031DA3290B
:100340003E080319BD291030C0000310BC0DBD0DBF
:10035000F70DFA0D3F087A02031DB0293E08770217
:10036000031CB9293E08F702031CFA033F08FA02EE
:100370000314F80DF90DC00BA5298312080088138A
:100380000813881208124208013C031CD1295108A5
:1003900086008817C4010130C3000230C200C101C9
:1003A000FB294208023C031DDF295208860008177A
:1003B000C4010130C3000330C200C101FB2942085F
:1003C000033C031DED29530886008816C401013043
:1003D000C3000430C200C101FB294208033C0318DA
:1003E000FA29540886000816C4010130C300C2006F
:1003F000C101FB29BF290800470B112A8518042ACF
:100400000519042A851D0C2AC9011430C8000230C0
:10041000C700C601452A112AC9010130C800C6011A
:10042000452A4708023C031D2E2A85187014051919
:10043000F014851970158518292A0519292A851996
:10044000292AC9011430C8000330C700C601452A53
:100450002E2AC9010130C800C601452A4708033CBD
:10046000031D442A701C362A3A147010F01C3A2AD4
:10047000BA14F010701D3E2A3A157011C9010130EE
:10048000C800C700C601452AFC2908008E30F700C5
:1004900083164908F8004808F900FA01F808031D16
:1004A0005B2A7908F800F9010830F702F808031D03
:1004B0005B2AF701632A0310F81B622AF90DF80D75
:1004C000F7035B2AF8138312080083164C080319FC
:1004D000D62AD40050080319D62AD4070318772A3D
:1004E0007F30D402031CD62A0319D62A7B2A8130F6
:1004F000D4070318D62A5408F700F801F901FA01C5
:100500004D08D800D8174E08D7004F08D60018302D
:10051000D400D501561CA42A5308FA07031C962AB6
:10052000F90A031D962AF80A0319D5175208F90784
:10053000031C9D2AF80A0319D5175108CE00CE17BF
:100540004E08F8070318D517D50DF80CF90CFA0C5E
:10055000D80CD70CD60C0310D40B892A0130F7071E
:100560000318D62AF81BBB2AD80DFA0DF90DF80D81
:10057000F7030319D62AD81FCC2AFA0A031DCC2A5E
:10058000F90A031DCC2AF80A031DCC2AF80CF90C31
:10059000FA0CF70A0319D62A4D08D5005108D506DA
:1005A000D51FD42AF817DA2AF813DA2AF701F80146
:1005B000F901FA0183120800831648080319A22BD7
:1005C000D4004C080319A22BD402031CEC2A7F3060
:1005D000D4070318A22BF22A8130D402031CA22BC9
:1005E0000319A22B5408F700F801F901FA01D3010D
:1005F0004908D200D2174A08D1004B08D000193060
:10060000D4004F08D0020318152B0130D102031873
:10061000152BD2020318152BD3020318152BD30A5E
:10062000D20AD10A4F08D007472B4E08D10203182F
:10063000302B0130D2020318302BD3020318302B99
:10064000D30AD20A4E08D1074F08D007031C472B04
:10065000D10A031D472BD20A031D472BD30A472B70
:100660004D088038D2020318462B0130D3020318FC
:10067000462BD30A4D088038D2074E08D107031CF9
:10068000242BD20A031D242BD30A242B7A14D40B37
:100690004A2B552B0310D00DD10DD20DD30D0310C5
:1006A000FA0DF90DF80DD50D012B551C5D2B03101E
:1006B000F80CF90CFA0CD50C602BF7030319A22BDC
:1006C000D51B892B0310D00DD10DD20DD30D4F08A2
:1006D000D0020318752B0130D1020318752BD202FA
:1006E0000318752BD302031C982B4E08D102031854
:1006F000802B0130D2020318802BD302031C982BCD
:100700004D088038D2020318892B0130D302031C14
:10071000982BFA0A031D982BF90A031D982BF80A47
:10072000031D982BF70A0319A22BF80CF90CFA0CED
:100730004908D4004D08D406D41FA02BF817A62BC7
:10074000F813A62BF701F801F901FA01831208004A
:100750008E30F70083164808F7024908F9004A0866
:10076000F800F917F7080319C02B0310F908031D47
:10077000BC2BF8080319C02BF90CF80CF70BB52BA0
:10078000C91FC72BF809F909F80A0319F90A8312D6
:1007900008004C0BD52B8F018E011014CE010A30AE
:1007A000CD000230CC00CB01732C4C08023C031D61
:1007B000722C10105C08013C031CFA2B031DE42B67
:1007C0005B08903C031CFA2BFA010F088316BB0050
:1007D000BA0183120E0883163A07F8003B08FA00A4
:1007E0000318FA0A78088312E3077A0803187A0FC5
:1007F000E407FC2BE401E301FA010F088316BB00B8
:10080000BA0183120E088316BA070318BB0A3B0805
:10081000C9003A08C800831246227A088316CF001E
:100820007908CE007808CD007708CC001930D300C5
:100830000430D2000630D1007F30D0008312652210
:1008400077088316BA007808BB007908BC007A08DC
:10085000BD00CB003C08CA003B08C9003A08C800EC
:10086000CF01CE01CD018430CC008312DC22770889
:100870008316BA007808BB007908BC007A08BD006E
:10088000CF003C08CE003B08CD003A08CC00D30195
:100890008030D2005430D1008830D00083126522DD
:1008A0007A088316CB007908CA007808C90077084F
:1008B000C8008312A8237908D6007808D500013033
:1008C000CC00E70A5508E50756080318560FE60757
:1008D00067083B3C0318722C0130E7005608E6001D
:1008E0005508E500C92B08008030831C7A2C83163C
:1008F000CD0683128316D201D3014908D1004D08D9
:10090000D10648080319682DD000F7004C080319D8
:10091000712DD00203190D2D031CCB2C4D08D600D0
:10092000D6174E08D5004F08D400D3010310D60CBB
:10093000D50CD40CD30CD00B952CD11FA22C521457
:10094000852D521050105216CB30840083139A2DEF
:100950005212D11BB52C501CC02CD60CD50CD40C6B
:10096000D30CF70A0319802DC02CD61BC32C0310FF
:10097000D30DD40DD50DD60DF7030319802DB52C4D
:1009800052172D2D52134908D100D11FC92CD6174B
:10099000792DD613792D4C08D000F7004808D002E5
:1009A0004908D600D6174A08D5004B08D400D30111
:1009B0000310D60CD50CD40CD30CD00BD72CD11FD4
:1009C000E42CD214852DD2105010D216CF308400D2
:1009D00083139A2DD212D11BF72C501C022DD60C4A
:1009E000D50CD40CD30CF70A0319802D022DD61B7D
:1009F000052D0310D30DD40DD50DD60DF703031916
:100A0000802DF72CD2172D2DD2134D08D100D11FD8
:100A10000B2DD617792DD613792D4D08D600D61764
:100A20004E08D5004F08D400D11F1A2DD6135215E9
:100A3000852D5211D3015010CB30840083139A2D91
:100A4000D11B432D4908D100501C2D2DD60CD50C9F
:100A5000D40CD30CF70A0319802DD31F3E2DD40AD2
:100A6000031D3E2DD50A031D3E2DD60A031D3E2D26
:100A7000D60CD50CD40CF70A0319802D521BC22CAE
:100A8000D21B042D622D8030D606D61F4B2D852D0E
:100A90004D08D100582D4908D100D608031D582D06
:100AA000D508031D582DD408031D582DF701792DA5
:100AB000D61B622D0310D30DD40DD50DD60DF70B1B
:100AC000582D802DD11F662DD617792DD613792D4F
:100AD0004C08F7004D08D6004E08D5004F08D4004A
:100AE000792D4808F7004908D6004A08D5004B0878
:100AF000D4005608F8005508F9005408FA00B82D3B
:100B0000F701F801F901FA01B82DD301D409D5098B
:100B1000D609D309D30A031D932DD40A031D932D9F
:100B2000D50A0319D60A5218A12CD218E32C52194F
:100B3000192D482D0008D407031CA42DD50A031D28
:100B4000A42DD60A0319501484030008D507031CEA
:100B5000AC2DD60A0319501484030008801F803A74
:100B6000D60703185014521AA82CD21AEA2C202D9A
:100B70008312080083164908D0004D08D006D01F04
:100B8000C62D03110310C91B0314F92D4908D00009
:100B90004C08D1004808D1020319D42DD01FF92DDB
:100BA0000308013A8300F92D4D08D1004908D1020C
:100BB0000319E02DD01FF92D0308013A8300F92D08
:100BC0004E08D1004A08D1020319EC2DD01FF92D8F
:100BD0000308013A8300F92D4F08D1004B08D102D8
:100BE0000319F82DD01FF92D0308013A8300F92DC0
:100BF00003108312080083163B08C9003A08C80096
:100C0000831246227A088316C3007908C200780846
:100C1000C1007708C0003D08C9003C08C800831225
:100C200046227A088316C7007908C6007808C500EE
:100C30007708C40083144708CB004608CA0045085B
:100C4000C9004408C8004308CF004208CE0041084C
:100C5000CD004008CC00831274247A08F40079088F
:100C6000F3007808F2007708F10083164308CB0000
:100C70004208CA004108C9004008C8008312A823DE
:100C80007908D6007808D50066308316CF00CE00EC
:100C9000CD007E30CC007408D3007308D2007208F7
:100CA000D1007108D00083126522831083162708B3
:100CB000CB002608CA002508C9002408C8007A0805
:100CC000CF007908CE007808CD007708CC008312D9
:100CD00074247A088316A7007908A6007808A5006E
:100CE0007708A40083102308CB002208CA0021083B
:100CF000C9002008C8007408CF007308CE0072082D
:100D0000CD007108CC00831274247A088316A300E6
:100D10007908A2007808A1007708A0002308CB007A
:100D20002208CA002108C9002008C800CF01CE014E
:100D30004830CD008430CC008312DC22831083162F
:100D40002708CB002608CA002508C9002408C800C7
:100D50007A08CF007908CE007808CD007708CC005B
:100D6000831274247A088316A7007908A6007808ED
:100D7000A5007708A40083147408CB007308CA0088
:100D80007208C9007108C8007E08CF007D08CE0037
:100D90007C08CD007B08CC0083127424770883166E
:100DA000C8007808C9007908CA007A08CB00CF00CB
:100DB0004A08CE004908CD004808CC006630D30070
:100DC000D2002630D1007F30D000831265228310FC
:100DD00083162708CB002608CA002508C900240866
:100DE000C8007A08CF007908CE007808CD007708CF
:100DF000CC00831274247A088316A7007908A60011
:100E00007808A5007708A4002B08CB002A08CA00A0
:100E10002908C9002808C8002308CF002208CE00EE
:100E20002108CD002008CC008312BA25031C232FF3
:100E300083162B08A3002A08A2002908A10028086D
:100E4000A000412F831283162308CB002208CA007A
:100E50002108C9002008C8002F08CF002E08CE00A6
:100E60002D08CD002C08CC008312BA25031C422F7C
:100E700083162F08A3002E08A2002D08A1002C081D
:100E8000A00083126B088316CB0083126A088316B6
:100E9000CA00831269088316C90083126808831682
:100EA000C8002708CF002608CE002508CD0024085A
:100EB000CC008312BA2503185F2F031D702F6B0817
:100EC0008316A70083126A088316A6008312690896
:100ED0008316A500831268088316A4009E2F831230
:100EE00083162708CB002608CA002508C900240855
:100EF000C80083126F088316CF0083126E08831612
:100F0000CE0083126D088316CD0083126C08831601
:100F1000CC008312BA2503188F2F031D9F2F6F0853
:100F20008316A70083126E088316A60083126D082D
:100F30008316A50083126C088316A400831274081C
:100F4000FE007308FD007208FC007108FB008316A8
:100F50002708CB002608CA002508C9002408C800B5
:100F60008312A82379088316BF007808BE003E08C4
:100F7000FF3CBE003F08031C3F0FC02F0330C12FB2
:100F8000033CBF003F08F9003E08F800F90CF80CDC
:100F9000F90CF80CF90C780883129500F90C790C0F
:100FA0003039F7001708CF397704970097151715D0
:100FB000121508001F151F1DF02F8316BB01BA0163
:100FC0003A08313C031CE62FBA0AE02FBB0A3B0863
:100FD0000A3C0318EE2F8312F02F83168312DB2FA7
:100FE000FA011E088316BD00BC011E083C07F8006C
:100FF0003D08FA000318FA0A7A08F900831208007B
:10100000840183131F308305B901BF01BE01C401F0
:10101000C301C901C801CE01CD01CF01D001D60164
:10102000D501D8016430D7000230DA000830D90089
:101030002730DC000F30DB00E001DF01DE01DD01E5
:10104000E201E101E401E301E601E5010130E7002D
:10105000EB01C030EA007F30E9008830E800EF01A2
:10106000EE01ED01EC01FE01FD01FC01FB01831627
:10107000A301A201A101A001AB015030AA0043309D
:10108000A9008E30A800AF015030AE00C330AD00D3
:101090008E30AC001F149F141F159F1107309C0049
:1010A0008312B6010130B700B800BA01BB000330AB
:1010B000BC000130BD000230C0000330C10001306F
:1010C000C2000330C500C6000130C7000430CA00AA
:1010D000CB000130CC00F001F101F201F301F40189
:1010E0008316A401A501A601A7018A118312702805
:1010F0008A158A118B208A1504308316BA00FA30BB
:10110000BB008A11831295288A158316BA0B7F2893
:101110008A1183128B208A158A11AF288A158A11A9
:10112000BB288A150230D0004F0BB528CF01BE086E
:10113000031D9D28BF080319A1283E080319BF03FA
:10114000BE03C308031DA728C4080319AB2843081E
:101150000319C403C303C808031DB128C908031930
:10116000B52848080319C903C803BE08031DBD28D4
:10117000BF08031DBD280330BC00C308031DC528DC
:10118000C408031DC5280330C100C808031DCD28AD
:10119000C908031DCD280330C600CD08031DD5287E
:1011A000CE08031DD5280430CB00500BF629380893
:1011B000A9003708A8003608A7003D08AC003C0885
:1011C000AB003B08AA004208AF004108AE0040084F
:1011D000AD004708B2004608B1004508B0004C0811
:1011E000B5004B08B4004A08B30005308316BA00B6
:1011F0008A118312F7208A157808FB3E0318F32919
:10120000053E292F8A118D218A15F3298A118E21F5
:101210008A15F32966088316BD00831265088316B4
:10122000BC00BF01831267088316BE008A118312B7
:1012300098218A1579088316B1007808B0008312C6
:101240006708323C03182C29831631088312DA0010
:10125000831630088312D90083163108BD00300888
:10126000BC000330BF00E830BE008A118312982111
:101270008A1579088316BB007808BA003B08FA0083
:101280003A088A11831241208A15F800D10083168A
:101290003108BD003008BC000330BF00E830BE009C
:1012A0008A11831298218A1577088316BA007A0862
:1012B000BB00BD003A08BC00BF016430BE008A110B
:1012C000831298218A1579088316BB007808BA0022
:1012D0003B08FA003A088A11831241208A15F80067
:1012E000D20083163108BD003008BC00BF01643055
:1012F000BE008A11831298218A1577088316BA00D6
:101300007A08BB00BD003A08BC00BF010A30BE002D
:101310008A11831298218A1579088316BB007808F0
:10132000BA003B08FA003A088A11831241208A1554
:10133000F800D30083163108BD003008BC00BF019F
:101340000A30BE008A11831298218A157708831605
:10135000BA007A08BB00FA003A088A1183124120C9
:101360008A15F800D4008A11BF218A15F3298A1141
:10137000FC218A153A18C329BA1CC3293A19C32972
:10138000BA100230D0003A18CC29BA18CC293A1D2C
:10139000CC293A110330D0003A1CD529BA18D529E6
:1013A0003A19D5293A100430D0003A1CDF29BA1C6A
:1013B000DF293A19DF293A10BA100130D000F32999
:1013C0008A11C9238A1556088316BB008312550853
:1013D0008316BA000330BD005230BC008A1183125C
:1013E000FB258A15F3298811081188105008023C42
:1013F000031D4A2B3808A9003708A8003608A700A3
:101400003D08AC003C08AB003B08AA004208AF0016
:101410004108AE004008AD004708B2004608B100E0
:101420004508B00004308316BA008A118312F720F1
:101430008A157808FC3E0318442B043E322F8A118B
:101440008D218A15442B8A118E218A15442B8A11ED
:10145000DA278A157908D8007808D7005808831643
:10146000C900831257088316C8008A1183124622C6
:101470008A157A088316CB007908CA007808C90053
:101480007708C800CF01C030CE007F30CD00883053
:10149000CC008A118312DC228A1577088316BA00E1
:1014A0007808BB007908BC007A08BD0083125A088E
:1014B0008316C900831259088316C8008A11831243
:1014C00046228A1583163D08CF003C08CE003B0813
:1014D000CD003A08CC007A08D3007908D200780809
:1014E000D1007708D0008A11831265228A157A0804
:1014F0008316CB007908CA007808C9007708C800AD
:101500008A118312A8238A157908D8007808D70091
:1015100058088316BD00831257088316BC00033099
:10152000BF00E830BE008A11831298218A1579081D
:101530008316BB007808BA003B08FA003A088A1103
:10154000831241208A15F800D10058088316BD0087
:10155000831257088316BC000330BF00E830BE007A
:101560008A11831298218A1577088316BA007A089F
:10157000BB00BD003A08BC00BF016430BE008A1148
:10158000831298218A1579088316BB007808BA005F
:101590003B08FA003A088A11831241208A15F800A4
:1015A000D20058088316BD00831257088316BC006A
:1015B000BF016430BE008A11831298218A15770812
:1015C0008316BA007A08BB00BD003A08BC00BF0110
:1015D0000A30BE008A11831298218A157908831671
:1015E000BB007808BA003B08FA003A088A11831257
:1015F00041208A15F800D30058088316BD008312D5
:1016000057088316BC00BF010A30BE008A1183123E
:1016100098218A1577088316BA007A08BB00FA0069
:101620003A088A11831241208A15F800D4008A11E1
:10163000BF218A15442B8A11FC218A153A18272BC1
:10164000BA1C272B3A19272BBA100230D0003A18AF
:10165000302BBA18302B3A1D302B3A110330D00002
:101660003A1C392BBA18392B3A19392B3A10043055
:10167000D0003A1C432BBA1C432B3A19432B3A1087
:10168000BA100130D000442B971117111211081510
:10169000881088115008033C031D962C3808A900B7
:1016A0003708A8003608A7003D08AC003C08AB008E
:1016B0003B08AA004208AF004108AE004008AD0058
:1016C0004708B2004608B1004508B0000430831650
:1016D000BA008A118312F7208A157808FC3E031895
:1016E000902C043E3A2F8A118D218A15902C8A1154
:1016F0008E218A15902C8A11DA278A157908DC0048
:101700007808DB00DC0CDB0CDC0CDB0C3F30DC0590
:10171000DC08031D8F2B5B08963C0318942B2730A5
:10172000DC000F30DB00D22B5C088316C90083126B
:101730005B088316C8008A11831246228A157A082C
:101740008316CF007908CE007808CD007708CC004A
:10175000C330D300D2000330D1008630D0008A11CC
:10176000831265228A157A08E0007908DF0078087C
:10177000DE007708DD0060088316CB0083125F0867
:101780008316CA0083125E088316C90083125D089F
:101790008316C8008A118312A8238A157908E200EB
:1017A0007808E100E401E3015C088316BD008312C0
:1017B0005B088316BC000330BF00E830BE008A110E
:1017C000831298218A1579088316BB007808BA001D
:1017D0003B08FA003A088A11831241208A15F80062
:1017E000D1005C088316BD0083125B088316BC0021
:1017F0000330BF00E830BE008A11831298218A1599
:1018000077088316BA007A08BB00BD003A08BC000E
:10181000BF016430BE008A11831298218A157908AD
:101820008316BB007808BA003B08FA003A088A1110
:10183000831241208A15F800D2005C088316BD008F
:1018400083125B088316BC00BF016430BE008A119E
:10185000831298218A1577088316BA007A08BB008C
:10186000BD003A08BC00BF010A30BE008A118312D5
:1018700098218A1579088316BB007808BA003B08BE
:10188000FA003A088A11831241208A15F800D30021
:101890005C088316BD0083125B088316BC00BF0181
:1018A0000A30BE008A11831298218A1577088316A0
:1018B000BA007A08BB00FA003A088A118312412064
:1018C0008A15F800D4008A11BF218A15902C8A113C
:1018D000FC218A153A18732CBA1C732C3A19732CF4
:1018E000BA100230D0003A187C2CBA187C2C3A1D61
:1018F0007C2C3A110330D0003A1C852CBA18852C68
:101900003A19852C3A100430D0003A1C8F2CBA1C9E
:101910008F2C3A198F2C3A10BA100130D000902C2D
:101920009711171112110811881488115008043CDE
:10193000031DCD2D3808A9003708A8003608A700D8
:101940003D08AC003C08AB003B08AA004208AF00D1
:101950004108AE004008AD004708B2004608B1009B
:101960004508B0004C08B5004B08B4004A08B30065
:1019700005308316BA008A118312F7208A15780879
:10198000FB3E0318CA2D053E422F8A118D218A1570
:10199000CA2D8A118E218A15CA2D66088316BD00AC
:1019A000831265088316BC00BF0183126708831683
:1019B000BE008A11831298218A1579088316B30014
:1019C0007808B2003308BD003208BC000330BF0005
:1019D000E830BE008A11831298218A15790883168F
:1019E000BB007808BA003B08FA003A088A11831253
:1019F00041208A15F800D10083163308BD00320853
:101A0000BC000330BF00E830BE008A118312982169
:101A10008A1577088316BA007A08BB00BD003A0819
:101A2000BC00BF016430BE008A11831298218A1560
:101A300079088316BB007808BA003B08FA003A0818
:101A40008A11831241208A15F800D20083163308C8
:101A5000BD003208BC00BF016430BE008A11831291
:101A600098218A1577088316BA007A08BB00BD0052
:101A70003A08BC00BF010A30BE008A1183129821C7
:101A80008A1579088316BB007808BA003B08FA006B
:101A90003A088A11831241208A15F800D300831670
:101AA0003308BD003208BC00BF010A30BE008A11F5
:101AB000831298218A1577088316BA007A08BB002A
:101AC000FA003A088A11831241208A15F800D400DE
:101AD0008A11BF218A15CA2D8A11FC218A153A184C
:101AE000782DBA1C782D3A19782DBA100230D00012
:101AF0003A18812DBA18812D3A1D812D3A110330E3
:101B0000D0003A1C8A2DBA188A2D3A198A2D3A101B
:101B10000430D0003A1C942DBA1C942D3A19942DFF
:101B20003A10BA100130D0003A189E2DBA1C9E2DE2
:101B30003A1D9E2DBA103A110530D000CA2D8A11D7
:101B4000C9238A1556088316BB00831255088316CD
:101B5000BA00831258088316BD00831257088316F3
:101B6000BC008A118312FB258A155C08013C031C0A
:101B7000C92D031DBF2D5B08903C031CC92D6208B5
:101B80006402031CC92D031DC82D63086102031CD8
:101B90003A15CA2D0811881088155008053C031DF8
:101BA000272F3808A9003708A8003608A7003D08E5
:101BB000AC003C08AB003B08AA004208AF0041085B
:101BC000AE004008AD004708B2004608B100450825
:101BD000B0004C08B5004B08B4004A08B30005300B
:101BE0008316BA008A118312F7208A157808FB3E03
:101BF0000318242F053E4B2F8A118D218A15242F7F
:101C00008A118E218A15242F8A11DA278A157908DC
:101C10008316B5007808B4003508BD003408BC0050
:101C20000330BF00E830BE008A11831298218A1564
:101C300079088316BB007808BA003B08FA003A0816
:101C40008A11831241208A15F800D10083163508C5
:101C5000BD003408BC000330BF00E830BE008A116C
:101C6000831298218A1577088316BA007A08BB0078
:101C7000BD003A08BC00BF016430BE008A11831267
:101C800098218A1579088316BB007808BA003B08AA
:101C9000FA003A088A11831241208A15F800D2000E
:101CA00083163508BD003408BC00BF016430BE0097
:101CB0008A11831298218A1577088316BA007A0848
:101CC000BB00BD003A08BC00BF010A30BE008A114B
:101CD000831298218A1579088316BB007808BA0008
:101CE0003B08FA003A088A11831241208A15F8004D
:101CF000D30083163508BD003408BC00BF010A308C
:101D0000BE008A11831298218A1577088316BA00BB
:101D10007A08BB00FA003A088A11831241208A151A
:101D2000F800D4008A11BF218A15242F8A11FC21C2
:101D30008A153A18A22EBA1CA22E3A19A22EBA104F
:101D40000230D0003A18AB2EBA18AB2E3A1DAB2E8B
:101D50003A110330D0003A1CB42EBA18B42E3A19F6
:101D6000B42E3A100430D0003A1CBE2EBA1CBE2E3F
:101D70003A19BE2E3A10BA100130D000242F8A1121
:101D8000C9238A1556088316BB008312550883168B
:101D9000BA00831258088316BD00831257088316B1
:101DA000BC008A118312FB258A155C08013C031CC8
:101DB000232F031DDF2E5B08903C031C232F5C08A0
:101DC0008316C90083125B088316C8008A11831228
:101DD00046228A157A088316CF007908CE00780843
:101DE000CD007708CC00C330D300D2000330D1003F
:101DF0008630D0008A11831265228A157A088316EC
:101E0000B9007908B8007808B7007708B600390833
:101E1000CB003808CA003708C9003608C8008A1144
:101E20008312A8238A157908FA0079086402031C32
:101E3000232F031D1F2F630878020318232FE401AB
:101E4000E3010230D000242F88150815881094284B
:101E500063000A148A140A158207022906290A292E
:101E6000B729E0290A148A140A1582071F2A232A8F
:101E7000272A1B2B0A148A140A158207732B772B27
:101E80007B2B672C0A148A140A158207C52CC92CCF
:101E9000CD2C6C2D9F2D0A148A140A158207FC2D57
:081EA000002E042E962EBF2E29
:02400E00323F3F
:00000001FF
;PIC16F877A
;CRC=799B  CREATED="21-Oct-13 16:28"
